{
  "contractName": "Bikes",
  "abi": [
    {
      "constant": false,
      "inputs": [
        {
          "name": "_to",
          "type": "address"
        },
        {
          "name": "_amount",
          "type": "uint256"
        }
      ],
      "name": "mint",
      "outputs": [],
      "payable": false,
      "stateMutability": "nonpayable",
      "type": "function"
    },
    {
      "constant": true,
      "inputs": [
        {
          "name": "",
          "type": "uint256"
        }
      ],
      "name": "idToBike",
      "outputs": [
        {
          "name": "owner",
          "type": "address"
        },
        {
          "name": "rentableStart",
          "type": "uint256"
        },
        {
          "name": "rentableEnd",
          "type": "uint256"
        },
        {
          "name": "ratePerFifteenMinutes",
          "type": "uint256"
        },
        {
          "name": "renterCount",
          "type": "uint256"
        },
        {
          "name": "latitudeBC",
          "type": "int8"
        },
        {
          "name": "latitudeAC",
          "type": "uint16"
        },
        {
          "name": "longitudeBC",
          "type": "int16"
        },
        {
          "name": "longitudeAC",
          "type": "uint16"
        },
        {
          "name": "bikeRadius",
          "type": "uint256"
        }
      ],
      "payable": false,
      "stateMutability": "view",
      "type": "function"
    },
    {
      "constant": true,
      "inputs": [
        {
          "name": "_owner",
          "type": "address"
        }
      ],
      "name": "balanceOf",
      "outputs": [
        {
          "name": "balance",
          "type": "uint256"
        }
      ],
      "payable": false,
      "stateMutability": "view",
      "type": "function"
    },
    {
      "constant": false,
      "inputs": [
        {
          "name": "_from",
          "type": "address"
        },
        {
          "name": "_amount",
          "type": "uint256"
        }
      ],
      "name": "burn",
      "outputs": [],
      "payable": false,
      "stateMutability": "nonpayable",
      "type": "function"
    },
    {
      "constant": false,
      "inputs": [
        {
          "name": "_to",
          "type": "address"
        },
        {
          "name": "_value",
          "type": "uint256"
        }
      ],
      "name": "transfer",
      "outputs": [
        {
          "name": "",
          "type": "bool"
        }
      ],
      "payable": false,
      "stateMutability": "nonpayable",
      "type": "function"
    },
    {
      "constant": true,
      "inputs": [],
      "name": "bikeCount",
      "outputs": [
        {
          "name": "",
          "type": "uint256"
        }
      ],
      "payable": false,
      "stateMutability": "view",
      "type": "function"
    },
    {
      "anonymous": false,
      "inputs": [
        {
          "indexed": false,
          "name": "_owner",
          "type": "address"
        },
        {
          "indexed": false,
          "name": "_id",
          "type": "uint256"
        }
      ],
      "name": "BikeCreated",
      "type": "event"
    },
    {
      "anonymous": false,
      "inputs": [
        {
          "indexed": false,
          "name": "_bikeIdx",
          "type": "uint256"
        },
        {
          "indexed": false,
          "name": "_to",
          "type": "address"
        },
        {
          "indexed": false,
          "name": "_startTime",
          "type": "uint256"
        },
        {
          "indexed": false,
          "name": "_endTime",
          "type": "uint256"
        }
      ],
      "name": "BikeRented",
      "type": "event"
    },
    {
      "constant": true,
      "inputs": [],
      "name": "getBikeCount",
      "outputs": [
        {
          "name": "",
          "type": "uint256"
        }
      ],
      "payable": false,
      "stateMutability": "view",
      "type": "function"
    },
    {
      "constant": true,
      "inputs": [
        {
          "name": "_bikeIdx",
          "type": "uint256"
        }
      ],
      "name": "getBikeOwner",
      "outputs": [
        {
          "name": "",
          "type": "address"
        }
      ],
      "payable": false,
      "stateMutability": "view",
      "type": "function"
    },
    {
      "constant": true,
      "inputs": [
        {
          "name": "_bikeIdx",
          "type": "uint256"
        }
      ],
      "name": "getBikeRentableStart",
      "outputs": [
        {
          "name": "",
          "type": "uint256"
        }
      ],
      "payable": false,
      "stateMutability": "view",
      "type": "function"
    },
    {
      "constant": true,
      "inputs": [
        {
          "name": "_bikeIdx",
          "type": "uint256"
        }
      ],
      "name": "getBikeRentableEnd",
      "outputs": [
        {
          "name": "",
          "type": "uint256"
        }
      ],
      "payable": false,
      "stateMutability": "view",
      "type": "function"
    },
    {
      "constant": true,
      "inputs": [
        {
          "name": "_bikeIdx",
          "type": "uint256"
        }
      ],
      "name": "getBikeRate",
      "outputs": [
        {
          "name": "",
          "type": "uint256"
        }
      ],
      "payable": false,
      "stateMutability": "view",
      "type": "function"
    },
    {
      "constant": true,
      "inputs": [
        {
          "name": "_bikeIdx",
          "type": "uint256"
        }
      ],
      "name": "getBikeRenterCount",
      "outputs": [
        {
          "name": "",
          "type": "uint256"
        }
      ],
      "payable": false,
      "stateMutability": "view",
      "type": "function"
    },
    {
      "constant": true,
      "inputs": [
        {
          "name": "_bikeIdx",
          "type": "uint256"
        },
        {
          "name": "_renterIdx",
          "type": "uint256"
        }
      ],
      "name": "getBikeRenterAddress",
      "outputs": [
        {
          "name": "",
          "type": "address"
        }
      ],
      "payable": false,
      "stateMutability": "view",
      "type": "function"
    },
    {
      "constant": true,
      "inputs": [
        {
          "name": "_bikeIdx",
          "type": "uint256"
        },
        {
          "name": "_renterIdx",
          "type": "uint256"
        }
      ],
      "name": "getBikeRentedStart",
      "outputs": [
        {
          "name": "",
          "type": "uint256"
        }
      ],
      "payable": false,
      "stateMutability": "view",
      "type": "function"
    },
    {
      "constant": true,
      "inputs": [
        {
          "name": "_bikeIdx",
          "type": "uint256"
        },
        {
          "name": "_renterIdx",
          "type": "uint256"
        }
      ],
      "name": "getBikeRentedEnd",
      "outputs": [
        {
          "name": "",
          "type": "uint256"
        }
      ],
      "payable": false,
      "stateMutability": "view",
      "type": "function"
    },
    {
      "constant": false,
      "inputs": [],
      "name": "createBike",
      "outputs": [],
      "payable": false,
      "stateMutability": "nonpayable",
      "type": "function"
    },
    {
      "constant": false,
      "inputs": [
        {
          "name": "_bikeIdx",
          "type": "uint256"
        },
        {
          "name": "_rentableStart",
          "type": "uint256"
        },
        {
          "name": "_rentableEnd",
          "type": "uint256"
        },
        {
          "name": "_ratePerFifteenMinutes",
          "type": "uint256"
        }
      ],
      "name": "makeBikeAvailable",
      "outputs": [],
      "payable": false,
      "stateMutability": "nonpayable",
      "type": "function"
    },
    {
      "constant": true,
      "inputs": [
        {
          "name": "_bikeIdx",
          "type": "uint256"
        },
        {
          "name": "_startTime",
          "type": "uint256"
        },
        {
          "name": "_endTime",
          "type": "uint256"
        }
      ],
      "name": "bikeIsAvailable",
      "outputs": [
        {
          "name": "",
          "type": "bool"
        }
      ],
      "payable": false,
      "stateMutability": "view",
      "type": "function"
    },
    {
      "constant": true,
      "inputs": [
        {
          "name": "_rate",
          "type": "uint256"
        },
        {
          "name": "_startTime",
          "type": "uint256"
        },
        {
          "name": "_endTime",
          "type": "uint256"
        }
      ],
      "name": "calculateRentPrice",
      "outputs": [
        {
          "name": "",
          "type": "uint256"
        }
      ],
      "payable": false,
      "stateMutability": "pure",
      "type": "function"
    },
    {
      "constant": false,
      "inputs": [
        {
          "name": "_bikeIdx",
          "type": "uint256"
        },
        {
          "name": "_startTime",
          "type": "uint256"
        },
        {
          "name": "_endTime",
          "type": "uint256"
        }
      ],
      "name": "requestRent",
      "outputs": [],
      "payable": false,
      "stateMutability": "nonpayable",
      "type": "function"
    }
  ],
  "bytecode": "0x606060405233600260006101000a81548173ffffffffffffffffffffffffffffffffffffffff021916908373ffffffffffffffffffffffffffffffffffffffff16021790555061141b806100546000396000f300606060405260043610610112576000357c0100000000000000000000000000000000000000000000000000000000900463ffffffff16806313b4eef6146101175780631d4ac68a1461015757806340284ee1146101a057806340c10f19146101d75780635039a832146102195780635413fd6c14610257578063636634c414610315578063645d78291461034c5780636a85ecea146103af57806370a08231146103c45780637f4daf2214610411578063907b182e1461045e578063966f01f91461049557806396b9abec146104ca5780639dc29fac14610536578063a9059cbb14610578578063b6cb4dad146105d2578063dfed656614610609578063e945209214610649578063f4f3bc9014610672575b600080fd5b341561012257600080fd5b610141600480803590602001909190803590602001909190505061069b565b6040518082815260200191505060405180910390f35b341561016257600080fd5b61018a60048080359060200190919080359060200190919080359060200190919050506106d0565b6040518082815260200191505060405180910390f35b34156101ab57600080fd5b6101c160048080359060200190919050506106ed565b6040518082815260200191505060405180910390f35b34156101e257600080fd5b610217600480803573ffffffffffffffffffffffffffffffffffffffff1690602001909190803590602001909190505061070d565b005b341561022457600080fd5b610255600480803590602001909190803590602001909190803590602001909190803590602001909190505061081b565b005b341561026257600080fd5b610278600480803590602001909190505061090b565b604051808b73ffffffffffffffffffffffffffffffffffffffff1673ffffffffffffffffffffffffffffffffffffffff1681526020018a81526020018981526020018881526020018781526020018660000b60000b81526020018561ffff1661ffff1681526020018460010b60010b81526020018361ffff1661ffff1681526020018281526020019a505050505050505050505060405180910390f35b341561032057600080fd5b61033660048080359060200190919050506109b5565b6040518082815260200191505060405180910390f35b341561035757600080fd5b61036d60048080359060200190919050506109d5565b604051808273ffffffffffffffffffffffffffffffffffffffff1673ffffffffffffffffffffffffffffffffffffffff16815260200191505060405180910390f35b34156103ba57600080fd5b6103c2610a15565b005b34156103cf57600080fd5b6103fb600480803573ffffffffffffffffffffffffffffffffffffffff16906020019091905050610bfe565b6040518082815260200191505060405180910390f35b341561041c57600080fd5b6104446004808035906020019091908035906020019091908035906020019091905050610c46565b604051808215151515815260200191505060405180910390f35b341561046957600080fd5b61047f6004808035906020019091905050610d17565b6040518082815260200191505060405180910390f35b34156104a057600080fd5b6104c86004808035906020019091908035906020019091908035906020019091905050610d37565b005b34156104d557600080fd5b6104f46004808035906020019091908035906020019091905050610f5f565b604051808273ffffffffffffffffffffffffffffffffffffffff1673ffffffffffffffffffffffffffffffffffffffff16815260200191505060405180910390f35b341561054157600080fd5b610576600480803573ffffffffffffffffffffffffffffffffffffffff16906020019091908035906020019091905050610fb4565b005b341561058357600080fd5b6105b8600480803573ffffffffffffffffffffffffffffffffffffffff16906020019091908035906020019091905050611122565b604051808215151515815260200191505060405180910390f35b34156105dd57600080fd5b6105f360048080359060200190919050506112dc565b6040518082815260200191505060405180910390f35b341561061457600080fd5b61063360048080359060200190919080359060200190919050506112fc565b6040518082815260200191505060405180910390f35b341561065457600080fd5b61065c611331565b6040518082815260200191505060405180910390f35b341561067d57600080fd5b61068561133b565b6040518082815260200191505060405180910390f35b600060036000848152602001908152602001600020600501600083815260200190815260200160002060010154905092915050565b6000836103848484038115156106e257fe5b040290509392505050565b600060036000838152602001908152602001600020600101549050919050565b600260009054906101000a900473ffffffffffffffffffffffffffffffffffffffff1673ffffffffffffffffffffffffffffffffffffffff163373ffffffffffffffffffffffffffffffffffffffff1614151561076957600080fd5b61077e8160015461134190919063ffffffff16565b6001819055506107d5816000808573ffffffffffffffffffffffffffffffffffffffff1673ffffffffffffffffffffffffffffffffffffffff1681526020019081526020016000205461134190919063ffffffff16565b6000808473ffffffffffffffffffffffffffffffffffffffff1673ffffffffffffffffffffffffffffffffffffffff168152602001908152602001600020819055505050565b600042841015151561082c57600080fd5b6103848401831015151561083f57600080fd5b600061038485850381151561085057fe5b0614151561085d57600080fd5b60008211151561086c57600080fd5b6003600086815260200190815260200160002090503373ffffffffffffffffffffffffffffffffffffffff168160000160009054906101000a900473ffffffffffffffffffffffffffffffffffffffff1673ffffffffffffffffffffffffffffffffffffffff161415156108df57600080fd5b838160010181905550828160020181905550818160030181905550600081600401819055505050505050565b60036020528060005260406000206000915090508060000160009054906101000a900473ffffffffffffffffffffffffffffffffffffffff16908060010154908060020154908060030154908060040154908060060160009054906101000a900460000b908060060160019054906101000a900461ffff16908060060160039054906101000a900460010b908060060160059054906101000a900461ffff1690806007015490508a565b600060036000838152602001908152602001600020600201549050919050565b60006003600083815260200190815260200160002060000160009054906101000a900473ffffffffffffffffffffffffffffffffffffffff169050919050565b610a1d611378565b33816000019073ffffffffffffffffffffffffffffffffffffffff16908173ffffffffffffffffffffffffffffffffffffffff16815250508060036000600454815260200190815260200160002060008201518160000160006101000a81548173ffffffffffffffffffffffffffffffffffffffff021916908373ffffffffffffffffffffffffffffffffffffffff1602179055506020820151816001015560408201518160020155606082015181600301556080820151816004015560a08201518160060160006101000a81548160ff021916908360000b60ff16021790555060c08201518160060160016101000a81548161ffff021916908361ffff16021790555060e08201518160060160036101000a81548161ffff021916908360010b61ffff1602179055506101008201518160060160056101000a81548161ffff021916908361ffff16021790555061012082015181600701559050506004600081548092919060010191905055507f92199caa17a6e4ef1d0136063993c9b443e6ae228d0d7a093100bc788c8ef47033600160045403604051808373ffffffffffffffffffffffffffffffffffffffff1673ffffffffffffffffffffffffffffffffffffffff1681526020018281526020019250505060405180910390a150565b60008060008373ffffffffffffffffffffffffffffffffffffffff1673ffffffffffffffffffffffffffffffffffffffff168152602001908152602001600020549050919050565b600080600060036000878152602001908152602001600020915081600101548510158015610c78575081600201548411155b1515610c875760009250610d0e565b600082600401541415610c9d5760019250610d0e565b600090505b8160040154811015610d09578160050160008281526020019081526020016000206001015484111580610ced5750816005016000828152602001908152602001600020600201548510155b1515610cfc5760009250610d0e565b8080600101915050610ca2565b600192505b50509392505050565b600060036000838152602001908152602001600020600401549050919050565b600080600360008681526020019081526020016000209150428410151515610d5e57600080fd5b61038484018310151515610d7157600080fd5b6000610384858503811515610d8257fe5b06141515610d8f57600080fd5b610d9a858585610c46565b1515610da557600080fd5b610de18260000160009054906101000a900473ffffffffffffffffffffffffffffffffffffffff16610ddc846003015487876106d0565b611122565b50338160000160006101000a81548173ffffffffffffffffffffffffffffffffffffffff021916908373ffffffffffffffffffffffffffffffffffffffff160217905550838160010181905550828160020181905550808260050160008460040160008154809291906001019190505581526020019081526020016000206000820160009054906101000a900473ffffffffffffffffffffffffffffffffffffffff168160000160006101000a81548173ffffffffffffffffffffffffffffffffffffffff021916908373ffffffffffffffffffffffffffffffffffffffff16021790555060018201548160010155600282015481600201559050507ffb3232f7d0f99292ecf3d4fda4d4cb1be33f6418db95f43818ab53203cfd468b85338686604051808581526020018473ffffffffffffffffffffffffffffffffffffffff1673ffffffffffffffffffffffffffffffffffffffff16815260200183815260200182815260200194505050505060405180910390a15050505050565b600060036000848152602001908152602001600020600501600083815260200190815260200160002060000160009054906101000a900473ffffffffffffffffffffffffffffffffffffffff16905092915050565b600260009054906101000a900473ffffffffffffffffffffffffffffffffffffffff1673ffffffffffffffffffffffffffffffffffffffff163373ffffffffffffffffffffffffffffffffffffffff1614151561101057600080fd5b6000611063826000808673ffffffffffffffffffffffffffffffffffffffff1673ffffffffffffffffffffffffffffffffffffffff1681526020019081526020016000205461135f90919063ffffffff16565b1015151561107057600080fd5b6110c1816000808573ffffffffffffffffffffffffffffffffffffffff1673ffffffffffffffffffffffffffffffffffffffff1681526020019081526020016000205461135f90919063ffffffff16565b6000808473ffffffffffffffffffffffffffffffffffffffff1673ffffffffffffffffffffffffffffffffffffffff168152602001908152602001600020819055506111188160015461135f90919063ffffffff16565b6001819055505050565b60008073ffffffffffffffffffffffffffffffffffffffff168373ffffffffffffffffffffffffffffffffffffffff161415151561115f57600080fd5b6000803373ffffffffffffffffffffffffffffffffffffffff1673ffffffffffffffffffffffffffffffffffffffff1681526020019081526020016000205482111515156111ac57600080fd5b6111fd826000803373ffffffffffffffffffffffffffffffffffffffff1673ffffffffffffffffffffffffffffffffffffffff1681526020019081526020016000205461135f90919063ffffffff16565b6000803373ffffffffffffffffffffffffffffffffffffffff1673ffffffffffffffffffffffffffffffffffffffff16815260200190815260200160002081905550611290826000808673ffffffffffffffffffffffffffffffffffffffff1673ffffffffffffffffffffffffffffffffffffffff1681526020019081526020016000205461134190919063ffffffff16565b6000808573ffffffffffffffffffffffffffffffffffffffff1673ffffffffffffffffffffffffffffffffffffffff168152602001908152602001600020819055506001905092915050565b600060036000838152602001908152602001600020600301549050919050565b600060036000848152602001908152602001600020600501600083815260200190815260200160002060020154905092915050565b6000600454905090565b60045481565b600080828401905083811015151561135557fe5b8091505092915050565b600082821115151561136d57fe5b818303905092915050565b61014060405190810160405280600073ffffffffffffffffffffffffffffffffffffffff168152602001600081526020016000815260200160008152602001600081526020016000800b8152602001600061ffff168152602001600060010b8152602001600061ffff1681526020016000815250905600a165627a7a723058208931e1e472ad51af9670bec07c138eb9290a1dd8a2a3f1ed4442f1a5fcf8a8790029",
  "source": "pragma solidity ^0.4.18;\n\nimport \"./BikeToken.sol\";\n\ncontract Bikes is BikeToken {\n\n  struct Renting {\n\n  address renter;\n  uint rentedStart;\n  uint rentedEnd;\n  \n  }\n\n  struct Bike {\n    \n  address owner;\n\n  uint rentableStart;\n  uint rentableEnd;\n  uint ratePerFifteenMinutes;\n  \n  uint renterCount;\n  mapping(uint => Renting) renters;\n\n  //Signed degrees format (DDD.dddddd)\n  //Latitudes range from -90 to 90.\n  //Longitudes range from -180 to 180.\n  \n  // we have 6 figs after the comma so x 10^6\n  int8 latitudeBC;\n  uint16 latitudeAC;\n  int16 longitudeBC;\n  uint16 longitudeAC;\n\n  uint bikeRadius;\n\n  //\n\n  }\n\n  mapping (uint => Bike) public idToBike;\n  uint public bikeCount;\n\n  function getBikeCount() view public returns(uint) {\n    return bikeCount;\n  }\n  \n  // seperate getters for each field in the Bike struct, because web3 cannot handle these types yet:\n  function getBikeOwner(uint _bikeIdx) view public returns(address) {\n    return idToBike[_bikeIdx].owner;\n  }\n\n  function getBikeRentableStart(uint _bikeIdx) view public returns (uint) {\n    return idToBike[_bikeIdx].rentableStart;\n  }\n\n   function getBikeRentableEnd(uint _bikeIdx) view public returns (uint) {\n    return idToBike[_bikeIdx].rentableEnd;\n  }\n\n  function getBikeRate(uint _bikeIdx) view public returns (uint) {\n    return idToBike[_bikeIdx].ratePerFifteenMinutes;\n  }\n\n  function getBikeRenterCount(uint _bikeIdx) view public returns (uint) {\n    return idToBike[_bikeIdx].renterCount;\n  }\n\n  // Likewise, getters for the renter in the renting struct of the bike:\n\n  function getBikeRenterAddress(uint _bikeIdx, uint _renterIdx) view public returns (address) {\n    return idToBike[_bikeIdx].renters[_renterIdx].renter;\n  }\n\n  function getBikeRentedStart(uint _bikeIdx, uint _renterIdx) view public returns (uint) {\n    return idToBike[_bikeIdx].renters[_renterIdx].rentedStart;\n  }\n\n  function getBikeRentedEnd(uint _bikeIdx, uint _renterIdx) view public returns (uint) {\n    return idToBike[_bikeIdx].renters[_renterIdx].rentedEnd;\n  }\n\n  event BikeCreated(address _owner, uint _id);\n\n  function createBike() public {\n    Bike memory b;\n    b.owner = msg.sender;\n    idToBike[bikeCount] = b;\n    bikeCount++;\n    BikeCreated(msg.sender,bikeCount-1);\n  }\n\n\n  function makeBikeAvailable(uint _bikeIdx, uint _rentableStart, uint _rentableEnd, uint _ratePerFifteenMinutes) {\n    require(_rentableStart >= now); //has to take place in the future (note that this does not yet take into account inaccuracy of blocktimes)\n    require(_rentableEnd >= _rentableStart + 15 minutes); // MINIMUM available for 15 minutes\n    require((_rentableEnd - _rentableStart) % 15 minutes == 0); // always in intervals of 15 minutes\n    require(_ratePerFifteenMinutes > 0); // pricerate must be non-zero\n\n    Bike storage b = idToBike[_bikeIdx];\n    require(b.owner == msg.sender);\n    //TODO: you cannot make the bike available again if it is being rented at this very moment\n    //...\n    b.rentableStart = _rentableStart;\n    b.rentableEnd = _rentableEnd;\n    b.ratePerFifteenMinutes = _ratePerFifteenMinutes;\n    b.renterCount = 0;\n  }\n\n\n  // an asset is available when the owner made it available and when it is not already being rented\n  function bikeIsAvailable(uint _bikeIdx, uint _startTime, uint _endTime) view public returns(bool) {\n    Bike storage _bike = idToBike[_bikeIdx];\n    // if the bike is NOT exclusively in the rentable interval, return false\n    if (!(_startTime >= _bike.rentableStart && _endTime <= _bike.rentableEnd)) {return (false);}\n    if (_bike.renterCount == 0) {return(true);}\n    // check if time is between any rented intervals in the Renters array of the bike\n    for (uint i = 0; i < _bike.renterCount; i++) {\n      // if the bike overlaps with a rented interval, return false\n      if(!(_endTime <= _bike.renters[i].rentedStart || _startTime >= _bike.renters[i].rentedEnd)){\n        return(false);\n      }\n    }\n    return(true);\n  }\n  \n  function calculateRentPrice(uint _rate, uint _startTime, uint _endTime) public pure returns (uint) {\n    return(((_endTime - _startTime)/(60*15)) * _rate);\n  }\n\n  event BikeRented(uint _bikeIdx, address _to, uint _startTime, uint _endTime);\n  \n  function requestRent(uint _bikeIdx, uint _startTime, uint _endTime) public {\n    Bike storage _bike = idToBike[_bikeIdx];\n    require(_startTime >= now); // has to take place in the future\n    require(_endTime >= _startTime + 900); // rent minimum 15 minutes\n    require((_endTime - _startTime) % 900 == 0); // always in intervals of 15 minutes\n    require(bikeIsAvailable(_bikeIdx, _startTime, _endTime)); // bike must be available\n    \n    transfer(_bike.owner, calculateRentPrice(_bike.ratePerFifteenMinutes, _startTime, _endTime));\n    // Make a rentEntry object and push it into the renting array\n    Renting storage _rentEntry;\n    _rentEntry.renter = msg.sender;\n    _rentEntry.rentedStart = _startTime;\n    _rentEntry.rentedEnd = _endTime;\n    _bike.renters[_bike.renterCount++] = _rentEntry;\n\n    BikeRented(_bikeIdx, msg.sender, _startTime, _endTime);\n  }\n\n  //function checkInput(bytes32 dataHash, uint long, uint lat, uint8 v, bytes32 r, bytes32 s) returns(address) {\n  //  return ecrecover(dataHash,v,r,s);\n  //}\n\n  // problem: renter can just input arbitrary long/lat data. how to know for sure that long/lat of bike is correct?\n  //function dropOffBike(uint _bikeIdx, uint _renterIdx) {\n    //Bike bike = idToBike[_bikeIdx];\n    //Renting renting = idToBike[_bikeIdx].renters[_renterIdx];\n    //can only drop off bike when time is between intervals & you are renting it:\n    //require(renting.renter == msg.sender);\n\n  //}\n\n\n  // maybe make it so msg has to havebeen signed by RPI? (else user could just input some random longs/lats)\n  // renter gets deposit back when:\n    // the deposit is his\n    // bike is dropped off in the good radius=\n    // bike is dropped off on time\n  //function finalizeRent(uint _bikeIdx, uint _renterIdx) {\n    //Renting renting = idToBike[_bikeIdx].renters[_renterIdx];\n    //require(renting.renter == msg.sender); // only the renter can finalize his own rent\n    //require(now <= renting.rentedEnd); // only when current time is under or equal to rentedend\n\n\n  //}\n}",
  "sourcePath": "/home/wim/Documents/school/2017-2018/Aalst/Stage/Stage-Trase/fietsverhuurcontracts/contracts/Bikes.sol",
  "compiler": {
    "name": "solc",
    "version": "0.4.19+commit.c4cbbb05.Emscripten.clang"
  },
  "schemaVersion": "2.0.0",
  "updatedAt": "2018-04-24T09:41:28.415Z"
}