{
  "contractName": "Bikes",
  "abi": [
    {
      "constant": true,
      "inputs": [
        {
          "name": "",
          "type": "uint256"
        }
      ],
      "name": "idToBike",
      "outputs": [
        {
          "name": "owner",
          "type": "address"
        },
        {
          "name": "amountOfAcc",
          "type": "uint256"
        },
        {
          "name": "standardPrice",
          "type": "uint256"
        },
        {
          "name": "renterCount",
          "type": "uint256"
        },
        {
          "name": "color",
          "type": "string"
        },
        {
          "name": "city",
          "type": "string"
        },
        {
          "name": "electric",
          "type": "bool"
        }
      ],
      "payable": false,
      "stateMutability": "view",
      "type": "function"
    },
    {
      "constant": true,
      "inputs": [
        {
          "name": "",
          "type": "uint256"
        }
      ],
      "name": "bikes",
      "outputs": [
        {
          "name": "",
          "type": "address"
        }
      ],
      "payable": false,
      "stateMutability": "view",
      "type": "function"
    },
    {
      "constant": true,
      "inputs": [
        {
          "name": "",
          "type": "address"
        },
        {
          "name": "",
          "type": "uint256"
        }
      ],
      "name": "ownerToBike",
      "outputs": [
        {
          "name": "",
          "type": "uint256"
        }
      ],
      "payable": false,
      "stateMutability": "view",
      "type": "function"
    },
    {
      "constant": true,
      "inputs": [],
      "name": "bikeCount",
      "outputs": [
        {
          "name": "",
          "type": "uint256"
        }
      ],
      "payable": false,
      "stateMutability": "view",
      "type": "function"
    },
    {
      "anonymous": false,
      "inputs": [
        {
          "indexed": false,
          "name": "id",
          "type": "uint256"
        },
        {
          "indexed": false,
          "name": "owner",
          "type": "address"
        },
        {
          "indexed": false,
          "name": "city",
          "type": "string"
        }
      ],
      "name": "NewBike",
      "type": "event"
    },
    {
      "anonymous": false,
      "inputs": [
        {
          "indexed": false,
          "name": "contractID",
          "type": "uint256"
        },
        {
          "indexed": false,
          "name": "owner",
          "type": "address"
        },
        {
          "indexed": false,
          "name": "bikeID",
          "type": "uint256"
        },
        {
          "indexed": false,
          "name": "request",
          "type": "bool"
        }
      ],
      "name": "NewEmptyContract",
      "type": "event"
    },
    {
      "constant": true,
      "inputs": [],
      "name": "getBikeCount",
      "outputs": [
        {
          "name": "",
          "type": "uint256"
        }
      ],
      "payable": false,
      "stateMutability": "view",
      "type": "function"
    },
    {
      "constant": false,
      "inputs": [
        {
          "name": "city",
          "type": "string"
        },
        {
          "name": "amountOfAcc",
          "type": "uint256"
        },
        {
          "name": "electric",
          "type": "bool"
        },
        {
          "name": "standardPrice",
          "type": "uint256"
        },
        {
          "name": "color",
          "type": "string"
        }
      ],
      "name": "createBike",
      "outputs": [],
      "payable": false,
      "stateMutability": "nonpayable",
      "type": "function"
    },
    {
      "constant": true,
      "inputs": [],
      "name": "getMyBikeIDs",
      "outputs": [
        {
          "name": "",
          "type": "uint256[]"
        }
      ],
      "payable": false,
      "stateMutability": "view",
      "type": "function"
    },
    {
      "constant": true,
      "inputs": [
        {
          "name": "id",
          "type": "uint256"
        }
      ],
      "name": "getMyBikeByID",
      "outputs": [
        {
          "name": "",
          "type": "string"
        },
        {
          "name": "",
          "type": "string"
        },
        {
          "name": "",
          "type": "uint256"
        },
        {
          "name": "",
          "type": "uint256"
        },
        {
          "name": "",
          "type": "uint256"
        },
        {
          "name": "",
          "type": "bool"
        },
        {
          "name": "",
          "type": "address"
        }
      ],
      "payable": false,
      "stateMutability": "view",
      "type": "function"
    },
    {
      "constant": false,
      "inputs": [
        {
          "name": "bikeID",
          "type": "uint256"
        },
        {
          "name": "rentStart",
          "type": "uint256"
        },
        {
          "name": "rentEnd",
          "type": "uint256"
        },
        {
          "name": "placeStart",
          "type": "string"
        },
        {
          "name": "placeEnd",
          "type": "string"
        },
        {
          "name": "radius",
          "type": "uint256"
        },
        {
          "name": "price",
          "type": "uint256"
        },
        {
          "name": "onRequest",
          "type": "bool"
        }
      ],
      "name": "createEmptyContract",
      "outputs": [],
      "payable": false,
      "stateMutability": "nonpayable",
      "type": "function"
    },
    {
      "constant": true,
      "inputs": [
        {
          "name": "id",
          "type": "uint256"
        }
      ],
      "name": "checkForContract",
      "outputs": [
        {
          "name": "",
          "type": "uint256"
        }
      ],
      "payable": false,
      "stateMutability": "view",
      "type": "function"
    },
    {
      "constant": true,
      "inputs": [
        {
          "name": "bikeID",
          "type": "uint256"
        },
        {
          "name": "contractID",
          "type": "uint256"
        }
      ],
      "name": "getBikeContractInfo",
      "outputs": [
        {
          "name": "",
          "type": "uint256"
        },
        {
          "name": "",
          "type": "uint256"
        },
        {
          "name": "",
          "type": "uint256"
        },
        {
          "name": "",
          "type": "bool"
        }
      ],
      "payable": false,
      "stateMutability": "view",
      "type": "function"
    }
  ],
  "bytecode": "0x608060405234801561001057600080fd5b5061141e806100206000396000f3006080604052600436106100af576000357c0100000000000000000000000000000000000000000000000000000000900463ffffffff168063257c427a146100b45780634540c400146100f55780634fb2e513146101595780635413fd6c1461024657806356358c69146103ab5780635c526e191461047a5780636465d735146104e7578063c285210914610548578063e6b70ddd146106ad578063e945209214610719578063f4f3bc9014610744575b600080fd5b3480156100c057600080fd5b506100df6004803603810190808035906020019092919050505061076f565b6040518082815260200191505060405180910390f35b34801561010157600080fd5b5061012a600480360381019080803590602001909291908035906020019092919050505061078f565b604051808581526020018481526020018381526020018215151515815260200194505050505060405180910390f35b34801561016557600080fd5b50610244600480360381019080803590602001909291908035906020019092919080359060200190929190803590602001908201803590602001908080601f0160208091040260200160405190810160405280939291908181526020018383808284378201915050505050509192919290803590602001908201803590602001908080601f016020809104026020016040519081016040528093929190818152602001838380828437820191505050505050919291929080359060200190929190803590602001909291908035151590602001909291905050506108fb565b005b34801561025257600080fd5b5061027160048036038101908080359060200190929190505050610b07565b604051808873ffffffffffffffffffffffffffffffffffffffff1673ffffffffffffffffffffffffffffffffffffffff168152602001878152602001868152602001858152602001806020018060200184151515158152602001838103835286818151815260200191508051906020019080838360005b838110156103035780820151818401526020810190506102e8565b50505050905090810190601f1680156103305780820380516001836020036101000a031916815260200191505b50838103825285818151815260200191508051906020019080838360005b8381101561036957808201518184015260208101905061034e565b50505050905090810190601f1680156103965780820380516001836020036101000a031916815260200191505b50995050505050505050505060405180910390f35b3480156103b757600080fd5b50610478600480360381019080803590602001908201803590602001908080601f01602080910402602001604051908101604052809392919081815260200183838082843782019150505050505091929192908035906020019092919080351515906020019092919080359060200190929190803590602001908201803590602001908080601f0160208091040260200160405190810160405280939291908181526020018383808284378201915050505050509192919290505050610ca6565b005b34801561048657600080fd5b506104a560048036038101908080359060200190929190505050610f5e565b604051808273ffffffffffffffffffffffffffffffffffffffff1673ffffffffffffffffffffffffffffffffffffffff16815260200191505060405180910390f35b3480156104f357600080fd5b50610532600480360381019080803573ffffffffffffffffffffffffffffffffffffffff16906020019092919080359060200190929190505050610f9c565b6040518082815260200191505060405180910390f35b34801561055457600080fd5b5061057360048036038101908080359060200190929190505050610fcc565b604051808060200180602001888152602001878152602001868152602001851515151581526020018473ffffffffffffffffffffffffffffffffffffffff1673ffffffffffffffffffffffffffffffffffffffff16815260200183810383528a818151815260200191508051906020019080838360005b838110156106055780820151818401526020810190506105ea565b50505050905090810190601f1680156106325780820380516001836020036101000a031916815260200191505b50838103825289818151815260200191508051906020019080838360005b8381101561066b578082015181840152602081019050610650565b50505050905090810190601f1680156106985780820380516001836020036101000a031916815260200191505b50995050505050505050505060405180910390f35b3480156106b957600080fd5b506106c26111f4565b6040518080602001828103825283818151815260200191508051906020019060200280838360005b838110156107055780820151818401526020810190506106ea565b505050509050019250505060405180910390f35b34801561072557600080fd5b5061072e611289565b6040518082815260200191505060405180910390f35b34801561075057600080fd5b50610759611293565b6040518082815260200191505060405180910390f35b600060016000838152602001908152602001600020600301549050919050565b600080600080600073ffffffffffffffffffffffffffffffffffffffff1660016000888152602001908152602001600020600701600087815260200190815260200160002060000160009054906101000a900473ffffffffffffffffffffffffffffffffffffffff1673ffffffffffffffffffffffffffffffffffffffff1614156108da57600160008781526020019081526020016000206007016000868152602001908152602001600020600101546001600088815260200190815260200160002060070160008781526020019081526020016000206002015460016000898152602001908152602001600020600701600088815260200190815260200160002060060154600160008a8152602001908152602001600020600701600089815260200190815260200160002060070160009054906101000a900460ff1693509350935093506108f2565b60008060008083935082925081915093509350935093505b92959194509250565b610903611299565b8781602001818152505086816040018181525050858160600181905250848160800181905250838160a0018181525050828160c0018181525050818160e001901515908115158152505080600160008b81526020019081526020016000206007016000600160008d8152602001908152602001600020600301600081548092919060010191905055815260200190815260200160002060008201518160000160006101000a81548173ffffffffffffffffffffffffffffffffffffffff021916908373ffffffffffffffffffffffffffffffffffffffff16021790555060208201518160010155604082015181600201556060820151816003019080519060200190610a109291906112f7565b506080820151816004019080519060200190610a2d9291906112f7565b5060a0820151816005015560c0820151816006015560e08201518160070160006101000a81548160ff0219169083151502179055509050507f5cccea0c96642f8e85f1f64a39de135d69ca08d61233d578f9e59197fe401a4760018060008c81526020019081526020016000206003015403338b85604051808581526020018473ffffffffffffffffffffffffffffffffffffffff1673ffffffffffffffffffffffffffffffffffffffff1681526020018381526020018215151515815260200194505050505060405180910390a1505050505050505050565b60016020528060005260406000206000915090508060000160009054906101000a900473ffffffffffffffffffffffffffffffffffffffff1690806001015490806002015490806003015490806004018054600181600116156101000203166002900480601f016020809104026020016040519081016040528092919081815260200182805460018160011615610100020316600290048015610beb5780601f10610bc057610100808354040283529160200191610beb565b820191906000526020600020905b815481529060010190602001808311610bce57829003601f168201915b505050505090806005018054600181600116156101000203166002900480601f016020809104026020016040519081016040528092919081815260200182805460018160011615610100020316600290048015610c895780601f10610c5e57610100808354040283529160200191610c89565b820191906000526020600020905b815481529060010190602001808311610c6c57829003601f168201915b5050505050908060060160009054906101000a900460ff16905087565b610cae611377565b33816000019073ffffffffffffffffffffffffffffffffffffffff16908173ffffffffffffffffffffffffffffffffffffffff168152505084816020018181525050828160400181815250506000816060018181525050818160800181905250858160a00181905250838160c00190151590811515815250508060016000600354815260200190815260200160002060008201518160000160006101000a81548173ffffffffffffffffffffffffffffffffffffffff021916908373ffffffffffffffffffffffffffffffffffffffff1602179055506020820151816001015560408201518160020155606082015181600301556080820151816004019080519060200190610dbe9291906112f7565b5060a0820151816005019080519060200190610ddb9291906112f7565b5060c08201518160060160006101000a81548160ff021916908315150217905550905050600260003373ffffffffffffffffffffffffffffffffffffffff1673ffffffffffffffffffffffffffffffffffffffff16815260200190815260200160002060035490806001815401808255809150509060018203906000526020600020016000909192909190915055507fdb8d739ef416b85d3dd8b74948b8d7780f37aeb91556f5cf9e98095d4dc8a1e26003543388604051808481526020018373ffffffffffffffffffffffffffffffffffffffff1673ffffffffffffffffffffffffffffffffffffffff16815260200180602001828103825283818151815260200191508051906020019080838360005b83811015610f08578082015181840152602081019050610eed565b50505050905090810190601f168015610f355780820380516001836020036101000a031916815260200191505b5094505050505060405180910390a1600360008154809291906001019190505550505050505050565b600081815481101515610f6d57fe5b906000526020600020016000915054906101000a900473ffffffffffffffffffffffffffffffffffffffff1681565b600260205281600052604060002081815481101515610fb757fe5b90600052602060002001600091509150505481565b606080600080600080600060016000898152602001908152602001600020600501600160008a8152602001908152602001600020600401600160008b815260200190815260200160002060010154600160008c815260200190815260200160002060030154600160008d815260200190815260200160002060020154600160008e815260200190815260200160002060060160009054906101000a900460ff16600160008f815260200190815260200160002060000160009054906101000a900473ffffffffffffffffffffffffffffffffffffffff16868054600181600116156101000203166002900480601f0160208091040260200160405190810160405280929190818152602001828054600181600116156101000203166002900480156111385780601f1061110d57610100808354040283529160200191611138565b820191906000526020600020905b81548152906001019060200180831161111b57829003601f168201915b50505050509650858054600181600116156101000203166002900480601f0160208091040260200160405190810160405280929190818152602001828054600181600116156101000203166002900480156111d45780601f106111a9576101008083540402835291602001916111d4565b820191906000526020600020905b8154815290600101906020018083116111b757829003601f168201915b505050505095509650965096509650965096509650919395979092949650565b6060600260003373ffffffffffffffffffffffffffffffffffffffff1673ffffffffffffffffffffffffffffffffffffffff16815260200190815260200160002080548060200260200160405190810160405280929190818152602001828054801561127f57602002820191906000526020600020905b81548152602001906001019080831161126b575b5050505050905090565b6000600354905090565b60035481565b61010060405190810160405280600073ffffffffffffffffffffffffffffffffffffffff1681526020016000815260200160008152602001606081526020016060815260200160008152602001600081526020016000151581525090565b828054600181600116156101000203166002900490600052602060002090601f016020900481019282601f1061133857805160ff1916838001178555611366565b82800160010185558215611366579182015b8281111561136557825182559160200191906001019061134a565b5b50905061137391906113cd565b5090565b60e060405190810160405280600073ffffffffffffffffffffffffffffffffffffffff16815260200160008152602001600081526020016000815260200160608152602001606081526020016000151581525090565b6113ef91905b808211156113eb5760008160009055506001016113d3565b5090565b905600a165627a7a72305820a835ee330c05c703dbca83dba5bfba3d2ce389d5f5cbd160a9980163f8aec61e0029",
  "source": "pragma solidity ^0.4.0;\n\ncontract Bikes {\n\n    event NewBike(uint id, address owner, string city);\n    event NewEmptyContract(uint contractID, address owner, uint bikeID, bool request);\n\n    struct Renting {\n\n        address renter;\n\n        uint rentStart;\n        uint rentEnd;\n        string placeStart;\n        string placeEnd;\n        uint radius;\n        uint price;\n        bool onRequest;\n    \n    }\n\n    struct Bike {\n        \n        address owner;\n        \n        uint amountOfAcc;\n        uint standardPrice;\n        uint renterCount;\n        \n        string color;\n        string city;\n\n        bool electric;\n\n        mapping(uint => Renting) renters;\n        \n    }\n\n    Bikes[] public bikes;\n\n    mapping (uint => Bike) public idToBike;\n    mapping (address => uint[]) public ownerToBike;\n\n    uint public bikeCount;\n\n    //GETTER TO GET ALL BIKES\n\n    function getBikeCount() view public returns(uint) {\n        return bikeCount;\n    }\n\n    //CREATE A NEW BIKE\n\n    function createBike(string city, uint amountOfAcc, bool electric, uint standardPrice, string color) public {\n        Bike memory b;\n        b.owner = msg.sender;\n        b.amountOfAcc = amountOfAcc;\n        b.standardPrice = standardPrice;\n        b.renterCount = 0;\n        b.color = color;\n        b.city = city;\n        b.electric = electric;\n\n        //bikes.push(b);\n        idToBike[bikeCount] = b;\n        ownerToBike[msg.sender].push(bikeCount);\n        \n        emit NewBike(bikeCount, msg.sender, city);\n        bikeCount++;\n    }\n\n    //GETTERS FOR BIKE\n\n    function getMyBikeIDs() external view returns(uint[]){\n        return ownerToBike[msg.sender];\n    }\n\n    function getMyBikeByID(uint id) external view returns(string, string, uint, uint, uint, bool, address){\n        return (idToBike[id].city, idToBike[id].color, idToBike[id].amountOfAcc, \n        idToBike[id].renterCount, idToBike[id].standardPrice, idToBike[id].electric, idToBike[id].owner);\n    }\n\n    //SET AVAILABLE (CREATE EMPTY CONTRACT)\n    function createEmptyContract(\n        uint bikeID, uint rentStart, uint rentEnd, string placeStart, string placeEnd, uint radius, uint price, bool onRequest) public {\n\n        Renting memory r;\n        r.rentStart = rentStart;\n        r.rentEnd = rentEnd;\n        r.placeStart = placeStart;\n        r.placeEnd = placeEnd;\n        r.radius = radius;\n        r.price = price;\n        r.onRequest = onRequest;\n\n        idToBike[bikeID].renters[idToBike[bikeID].renterCount++] = r;\n        emit NewEmptyContract(idToBike[bikeID].renterCount - 1, msg.sender, bikeID, onRequest);\n    }\n\n    //GETTERS FOR CONTRACT\n\n    function checkForContract(uint id) external view returns(uint) {\n        return idToBike[id].renterCount;\n    }\n\n    function getBikeContractInfo(uint bikeID, uint contractID) external view returns(uint, uint, uint, bool) {\n        //if(owner==address(0))\n        if(idToBike[bikeID].renters[contractID].renter == address(0)){\n            return (idToBike[bikeID].renters[contractID].rentStart, idToBike[bikeID].renters[contractID].rentEnd,\n            idToBike[bikeID].renters[contractID].price, idToBike[bikeID].renters[contractID].onRequest);\n        }else{\n            return (0,0,0,false);\n        }\n    }\n\n}\n",
  "sourcePath": "/home/wouter/HLC/web3GUide/contractTest/contracts/Bikes.sol",
  "compiler": {
    "name": "solc",
    "version": "0.4.23+commit.124ca40d.Emscripten.clang"
  },
  "schemaVersion": "2.0.0",
  "updatedAt": "2018-05-03T21:41:21.002Z"
}